:020000040000FA
:0400000007EF00F016
:100008005E825AED0FF0F5EF0EF0000E1D6E000E39
:100018001C6E000E1F6E000E1E6E000E216E010E6D
:10002800206E000E016E010E18EC10F043EC0EF07D
:10003800000E4BEC10F04D6E4D508009096E000E0D
:1000480093EC10F0D00E036E2F0E046E820E056E28
:10005800BFEC0EF0860E036E000E046EC20E056E27
:10006800BFEC0EF0000186510A0DF3CF0FF0F4CF6C
:1000780010F087510F26000E1022F00E0F241E6E6E
:10008800FD0E10201F6E89510A0DF3CF0FF0F4CF2B
:1000980010F08A510F26000E1022F00E0F241C6E4D
:1000A800FD0E10201D6E8C510A0DF3CF0FF0F4CF0A
:1000B80010F08D510F26000E1022F00E0F241A6E2C
:1000C800FD0E10201B6E000E156E000E166E000E33
:1000D800176E000E186E15C00FF016C010F017C07E
:1000E80011F018C012F0152A000E16221722182235
:1000F8001250111009E1E90E0F5C030E1058D8B028
:1001080088EF00F08AEF00F0ECEF00F0C80E0D6EFB
:100118001AC001F01BC002F0000E046E0A0E036E36
:10012800DAEC0CF00150300FAFEC10F0C90E0D6E88
:100138001AC001F01BC002F0000E046E0A0E036E16
:1001480097EC0DF00150300FAFEC10F0C50E0D6EAE
:100158001CC001F01DC002F0000E046E0A0E036EF2
:10016800DAEC0CF00150300FAFEC10F0C60E0D6E4B
:100178001CC001F01DC002F0000E046E0A0E036ED2
:1001880097EC0DF00150300FAFEC10F0C20E0D6E71
:100198001EC001F01FC002F0000E046E0A0E036EAE
:1001A800DAEC0CF00150300FAFEC10F0C30E0D6E0E
:1001B8001EC001F01FC002F0000E046E0A0E036E8E
:1001C80097EC0DF00150300FAFEC10F047EF01F055
:1001D800185017100BE1E90E155C030E1658D8A03D
:1001E800F8EF00F0FAEF00F03FEF01F018501710A9
:1001F80009E1D00E155C070E1658D8B006EF01F0CD
:1002080008EF01F03FEF01F020042110D8A40FEF10
:1002180001F011EF01F019EF01F0050E036E2F0E3A
:10022800046EC80E056EBFEC0EF0020E20182110E9
:10023800D8A421EF01F023EF01F02BEF01F0050E18
:10024800036E2F0E046EC50E056EBFEC0EF0030E86
:1002580020182110D8A433EF01F035EF01F047EF53
:1002680001F0060E036E2F0E046EC20E056EBFEC73
:100278000EF047EF01F0000E156E000E166E000E20
:10028800176E000E186E000E146E640E136E1306B1
:10029800D8A01406132806E11428D8A456EF01F0B4
:1002A80058EF01F04BEF01F0010E69EC0CF0196EFC
:1002B8000B0E1918D8A463EF01F065EF01F001EFF8
:1002C80002F0020E5518D8A46CEF01F06EEF01F0A1
:1002D80001EF02F0000E556E1AC001F01BC002F0CB
:1002E800000E046E0A0E036EDAEC0CF001C00FF07B
:1002F80002C010F00F3AF00E0F161AC001F01BC022
:1003080002F0000E046E0A0E036E97EC0DF0015019
:100318000F10096E000E93EC10F01CC001F01DC008
:1003280002F0000E046E0A0E036EDAEC0CF001C047
:100338000FF002C010F00F3AF00E0F161CC001F0BB
:100348001DC002F0000E046E0A0E036E97EC0DF04D
:1003580001500F10096E010E93EC10F01EC001F051
:100368001FC002F0000E046E0A0E036EDAEC0CF0E9
:1003780001C00FF002C010F00F3AF00E0F161EC0A9
:1003880001F01FC002F0000E046E0A0E036E97EC17
:100398000DF001500F10096E020E93EC10F0000ED4
:1003A8004BEC10F04D6E4D507F0B096E000E93EC28
:1003B80010F0000E016E010E18EC10F06B0E036EBB
:1003C8002F0E046E800E056EBFEC0EF0360E106E0A
:1003D800450E0F6E370EE82EFED70F2EFCD7102EC7
:1003E800FAD700F0000E476E020E466E000E016E40
:1003F800010E18EC10F0FAEF02F00C0E1918D8A440
:1004080008EF02F00AEF02F01BEF02F0020E551897
:10041800D8A411EF02F013EF02F01BEF02F0000E68
:10042800556E000E476E020E466EFAEF02F00B0E86
:100438001918D8A422EF02F024EF02F0D7EF02F047
:1004480020042110D8A42BEF02F02DEF02F05FEF6B
:1004580002F01A4A1B2A3C0E1A181B10D8A437EFB0
:1004680002F039EF02F03DEF02F0000E1B6E000EB5
:100478001A6EC80E0D6E1AC001F01BC002F0000EF5
:10048800046E0A0E036EDAEC0CF00150300FAFEC7C
:1004980010F0C90E0D6E1AC001F01BC002F0000E5C
:1004A800046E0A0E036E97EC0DF00150300FAFEC9E
:1004B80010F06FEF00F0020E20182110D8A467EF9B
:1004C80002F069EF02F09BEF02F01C4A1D2A3C0E75
:1004D8001C181D10D8A473EF02F075EF02F079EF25
:1004E80002F0000E1D6E000E1C6EC50E0D6E1CC0B7
:1004F80001F01DC002F0000E046E0A0E036EDAEC65
:100508000CF00150300FAFEC10F0C60E0D6E1CC091
:1005180001F01DC002F0000E046E0A0E036E97EC87
:100528000DF00150300FAFEC10F06FEF00F0030E3C
:1005380020182110D8A4A3EF02F0A5EF02F0F8EFDD
:1005480002F01E4A1F2A180E1E181F10D8A4AFEF5B
:1005580002F0B1EF02F0B5EF02F0000E1F6E000ED0
:100568001E6EC20E0D6E1EC001F01FC002F0000EFE
:10057800046E0A0E036EDAEC0CF00150300FAFEC8B
:1005880010F0C30E0D6E1EC001F01FC002F0000E69
:10059800046E0A0E036E97EC0DF00150300FAFECAD
:1005A80010F06FEF00F00C0E1918D8A4DEEF02F06F
:1005B800E0EF02F0F8EF02F021BEEEEF02F021507A
:1005C80007E1030E205CD8B0ECEF02F0EEEF02F08A
:1005D800F2EF02F0204A212A6FEF00F0000E216EA0
:1005E800010E206E6FEF00F06FEF00F012000001B7
:1005F800B351B411B511B611D8B405EF03F007EF34
:1006080003F00FEF03F03B0E036E2F0E046E810E06
:10061800056EBFEC0EF000016F516E116D1109E10E
:10062800030E6C5DD8A01BEF03F01DEF03F03EEF47
:1006380003F048284910D8A424EF03F026EF03F06C
:100648003EEF03F0000E476E000E466E000E536E2E
:10065800000E016E010E18EC10F0000E00016C6F18
:10066800000E6D6F000E6E6F000E6F6FE1EF04F0FD
:10067800E1EF04F048284910D8B445EF03F047EFFC
:1006880003F086EF03F0040E53604DEF03F04FEFD5
:1006980003F086EF03F0000E6C6F000E6D6F000E16
:1006A8006E6F000E6F6F0B0E48184910D8A45FEFDD
:1006B80003F061EF03F06BEF03F0680E5324D96E7B
:1006C800DA6A000EDA22300EDF6E7DEF03F00C0ED0
:1006D80048184910D8A473EF03F075EF03F07DEFC5
:1006E80003F0680E5324D96EDA6A000EDA22310E4E
:1006F800DF6E5350C00F0D6E2A0EAFEC10F0532A68
:10070800E1EF04F0030E53648CEF03F08EEF03F077
:10071800E1EF04F0000E6C6F000E6D6F000E6E6F4F
:10072800000E6F6F000E186E000E176E000E706FC1
:10073800000E716F000E726F000E736F680E172433
:10074800D96E000E1820DA6EAF0E1724E16E000E77
:100758001820E26EDE50E618D8B4B5EF03F0B7EF14
:1007680003F027EF04F05604571058105910D8B466
:10077800C0EF03F0C2EF03F027EF04F0010EB36FF0
:10078800000EB46F000EB56F000EB66F010E706FDD
:10079800000E716F000E726F000E736F000E5B6EAD
:1007A800780E5A6E000E536E4C0E036E2F0E046EAA
:1007B800800E056EBFEC0EF0190E036E2F0E046E40
:1007C800C00E056EBFEC0EF0CF0E0D6E5606000E75
:1007D800575A585A595A5650300FAFEC10F0130E5A
:1007E800126E880E116E0AEF04F0000E146EC80E19
:1007F800136E1306D8A01406132806E11428D8A4EB
:1008080008EF04F00AEF04F0FDEF03F01106D8A09A
:100818001206112806E11228D8A415EF04F017EFE4
:1008280004F0F9EF03F0000E016E010E18EC10F061
:10083800000E00016C6F000E6D6F000E6E6F000EE3
:100848006F6FACEF04F05604571058105910D8A425
:1008580030EF04F032EF04F09CEF04F0000EB36FB9
:10086800000EB46F000EB56F000EB66F2A0E036E41
:100878002F0E046E800E056EBFEC0EF0C60E036ED2
:100888002F0E046EC00E056EBFEC0EF0CB0E0D6E73
:100898005AC008F05BC009F0000E0B6E0A0E0A6E13
:1008A80028EC0FF00850300FAFEC10F0CA0E0D6EA8
:1008B800000E046E0A0E036E5AC001F05BC002F00F
:1008C80085EC0EF001C008F002C009F0000E0B6EB6
:1008D8000A0E0A6E28EC0FF00850300FAFEC10F03B
:1008E800C90E0D6E5AC001F05BC002F0000E046E16
:1008F800640E036E85EC0EF00150300FAFEC10F073
:100908005A505B10D8A48BEF04F08DEF04F0E1EFA0
:1009180004F0000E016E010E18EC10F0000E476E88
:10092800000E466E000E5B6E780E5A6EE1EF04F014
:10093800174A182A18BEAAEF04F0185009E1040E45
:10094800175CD8A0AAEF04F0ACEF04F09AEF03F01C
:100958007051711172117311D8A4B5EF04F0B7EF8B
:1009680004F03CEF03F0000E016E010E18EC10F0DD
:10097800BA0E036E2F0E046E800E056EBFEC0EF0DD
:10098800000E166E000E156E154A162A16BED6EF04
:1009980004F0165009E1C80E155CD8A0D6EF04F093
:1009A800D8EF04F0C8EF04F0000E016E010E18EC49
:1009B80010F0000E476E020E466E12001250800BA9
:1009C8001F6E12501224266E11AEEDEF04F0EFEFF9
:1009D80004F0F0EF04F026802650D8B4F6EF04F0C7
:1009E800F8EF04F00DEF05F02628D8A4FEEF04F088
:1009F80000EF05F008EF05F0000E0F6E000E106E08
:100A0800000E116E000E126E118E000E126E15EF92
:100A180005F0000E0F6E000E106E000E116E000E27
:100A2800126E1650800B1F1A16501624276E15AE1C
:100A380020EF05F022EF05F023EF05F0278027507F
:100A4800D8B429EF05F02BEF05F040EF05F0272883
:100A5800D8A431EF05F033EF05F03BEF05F0000EB9
:100A6800136E000E146E000E156E000E166E158EA7
:100A7800000E166E48EF05F0000E136E000E146E91
:100A8800000E156E000E166E135014101510161069
:100A9800D8A451EF05F053EF05F06BEF05F0000E09
:100AA8000F6E000E106E000E116E000E126E800E8C
:100AB80011127F0E12121F5012120FC00FF010C029
:100AC80010F011C011F012C012F0AEEF06F026506F
:100AD800D8A471EF05F073EF05F07DEF05F0000E77
:100AE8000F6E000E106E000E116E000E126EAEEF3D
:100AF80006F0275026C017F0186A175E000E185A1D
:100B08007F0E1724206E000E1820216E0FC01BF0D8
:100B180010C01CF011C01DF012C01EF0000E0F6EA8
:100B2800000E106E000E116E000E126E000E226E78
:100B3800000E236E000E246E000E256E000E276E2A
:100B4800DEEF05F02750D8B4ACEF05F0AEEF05F0B6
:100B5800C5EF05F0D8901B361C361D361E36D890CA
:100B68000F3610361136123625AEBDEF05F0BFEF41
:100B780005F0C0EF05F00F80D890223623362436D2
:100B8800253613501B5C14501C5815501D58165010
:100B98001E58D8A0D2EF05F0D4EF05F0DDEF05F030
:100BA800258C13501B5E14501C5A15501D5A165094
:100BB8001E5A272A190E2764E4EF05F0E6EF05F020
:100BC800A6EF05F01B501C101D101E10D8B4EFEF37
:100BD80005F0F1EF05F009EF06F0228009EF06F0C5
:100BE800D8900F3610361136123625AEFEEF05F0C6
:100BF80000EF06F001EF06F00F80D890223623367A
:100C0800243625362006D8A0210611AE0EEF06F0B0
:100C180010EF06F0F4EF05F0000E276E25AE17EF83
:100C280006F019EF06F03DEF06F0FF0E2214176EDE
:100C3800FF0E2314186EFF0E2414196E7F0E251450
:100C48001A6E1750181019101A10D8B42EEF06F093
:100C580030EF06F034EF06F0010E276E3DEF06F098
:100C68000FA039EF06F03BEF06F03DEF06F030EF4E
:100C780006F02750D8B443EF06F045EF06F069EFC9
:100C880006F0010E0F26000E10221122122212A0C9
:100C980050EF06F052EF06F069EF06F00FC017F0BC
:100CA80010C018F011C019F012C01AF01A341A3214
:100CB80019321832173217C00FF018C010F019C0C7
:100CC80011F01AC012F0204A212A21BE74EF06F052
:100CD800215008E12028D8A074EF06F076EF06F03E
:100CE80081EF06F0000E216E2068000E0F6E000ED8
:100CF800106E000E116E000E126E21BE8EEF06F001
:100D0800215006E12004D8B08CEF06F08EEF06F0F3
:100D18009CEF06F0000E216E000E206E000E0F6E86
:100D2800000E106E000E116E000E126E000E1F6E79
:100D380020C026F026A0A3EF06F0A5EF06F0A8EF46
:100D480006F0118EA9EF06F0119ED8902630126E8B
:100D58005FEF05F01200D90E036E2F0E046E820E9F
:100D6800056EBFEC0EF0DC0E036E2F0E046E8B0EBC
:100D7800056EBFEC0EF0DE0E036E2F0E046E8E0EA7
:100D8800056EBFEC0EF0D8904434D96E4534DA6E57
:100D98008F0ED926000EDA22DECF03F0DDCF04F065
:100DA800CB0E056EBFEC0EF0E3EC10F0080E441805
:100DB8004510D8A4E2EF06F0E4EF06F0F3EF06F0F2
:100DC80048044910D8A4EBEF06F0EDEF06F0F3EF76
:100DD80006F0000E456E010E446E40EF07F04550D8
:100DE80007E1070E445CD8B0FCEF06F0FEEF06F012
:100DF8000BEF07F048044910D8A405EF07F007EFF8
:100E080007F00BEF07F0444A452A40EF07F0020EBF
:100E180048184910D8A413EF07F015EF07F030EF82
:100E280007F0455009E1020E445CD8A01EEF07F018
:100E380020EF07F030EF07F0455007E1080E445C5B
:100E4800D8B029EF07F02BEF07F030EF07F0440692
:100E5800D8A0450640EF07F0030E48184910D8A45B
:100E680038EF07F03AEF07F040EF07F0000E456E55
:100E7800080E446E40EF07F0040EB2EC0FF001C00C
:100E880042F002C043F0000E136E000E146E240EE2
:100E9800156E410E166E42C001F043C002F0036A9F
:100EA800046A000E9DEC08F001C00FF002C010F0BB
:100EB80003C011F004C012F0E2EC04F00FC028F0F7
:100EC80010C029F011C02AF012C02BF069EC0BF009
:100ED80028C03EF029C03FF0CF0E0D6E3EC008F08E
:100EE8003FC009F0000E0B6E0A0E0A6E28EC0FF0D8
:100EF8000850300FAFEC10F0CE0E0D6E3EC001F072
:100F08003FC002F0000E046E0A0E036E85EC0EF070
:100F18000150300FAFEC10F00B0E48184910D8A450
:100F280098EF07F09AEF07F0AFEF07F0000E000117
:100F38006C6F000E6D6F000E6E6F000E6F6F000EFF
:100F4800496E4868000E016E010E18EC10F0000E94
:100F5800476E010E466E12000C0E48184910D8A4B0
:100F6800B8EF07F0BAEF07F0D0EF07F0020E551808
:100F7800D8A4C1EF07F0C3EF07F0D0EF07F0000ED9
:100F8800016E010E18EC10F0000E476E000E466E52
:100F9800000E556E9CEF08F00B0E48184910D8A4A7
:100FA800D8EF07F0DAEF07F0F0EF07F0020E551868
:100FB800D8A4E1EF07F0E3EF07F0F0EF07F0030E36
:100FC8003C24466E000E3D20476E000E016E010E59
:100FD80018EC10F0CCEF07F03DBEFEEF07F03D50E7
:100FE80007E1040E3C5CD8B0FCEF07F0FEEF07F019
:100FF80011EF08F00C0E48184910D8A406EF08F0B5
:1010080008EF08F011EF08F0000E016E010E18EC61
:1010180010F03C4A3D2A30EF08F03DBE1CEF08F0C6
:101028003D5008E13C04D8A01CEF08F01EEF08F082
:1010380030EF08F00B0E48184910D8A426EF08F036
:1010480028EF08F030EF08F0000E016E010E18ECE2
:1010580010F03C06D8A03D063CB035EF08F037EF5D
:1010680008F06BEF08F0FC0E036E2F0E046E800E76
:10107800056EBFEC0EF0D8903C34D96E3D34DA6E74
:10108800A10ED926000EDA22DECF03F0DDCF04F060
:10109800820E056EBFEC0EF0040E3C183D10D8B45D
:1010A80058EF08F05AEF08F06BEF08F0D8903C348E
:1010B800D96E3D34DA6EA30ED926000EDA22DECFC1
:1010C80003F0DDCF04F0C20E056EBFEC0EF03CA0BD
:1010D80070EF08F072EF08F09CEF08F0FC0E036E5A
:1010E8002F0E046EC00E056EBFEC0EF0D8903C3487
:1010F800D96E3D34DA6E9F0ED926000EDA22DECF85
:1011080003F0DDCF04F0820E056EBFEC0EF0D89030
:101118003C34D96E3D34DA6EA10ED926000EDA229F
:10112800DECF03F0DDCF04F0C20E056EBFEC0EF08B
:101138001200096E0950D8B4A4EF08F0A6EF08F021
:10114800C8EF08F004BEADEF08F0ABEF08F0C8EF49
:1011580008F001C005F002C006F003C007F004C0A3
:1011680008F0051E061E071E081E052A000E062288
:101178000722082205C00BF006C00CF007C00DF0CE
:1011880008C00EF0D0EF08F001C00BF002C00CF060
:1011980003C00DF004C00EF001500210031004103B
:1011A800D8A4D9EF08F0DBEF08F0E5EF08F0000E5F
:1011B800016E000E026E000E036E000E046E76EFD6
:1011C80009F0960E0A6EEFEF08F00A2AD8900E3250
:1011D8000D320C320B32000E0B14056E000E0C147F
:1011E800066E000E0D14076EFE0E0E14086E0550E6
:1011F800061007100810D8A404EF09F006EF09F04C
:10120800E9EF08F014EF09F00A2A010E0B26000E88
:101218000C220D220E22D8900E320D320C320B32D7
:10122800000E0B14056E000E0C14066E000E0D1445
:10123800076EFF0E0E14086E0550061007100810F2
:10124800D8A429EF09F02BEF09F008EF09F033EFE4
:1012580009F00A06D8900B360C360D360E360DBE40
:1012680038EF09F03AEF09F042EF09F0020E0A6090
:1012780040EF09F042EF09F02DEF09F00AB047EF0F
:1012880009F049EF09F04AEF09F00D9ED8900A32AB
:101298000AC005F0066A076A086A05C008F0076A06
:1012A800066A056A05500B1206500C1207500D12FB
:1012B80008500E120950D8B464EF09F066EF09F02F
:1012C8006EEF09F004BE6DEF09F06BEF09F06EEFF9
:1012D80009F00E8E0BC001F00CC002F00DC003F037
:1012E8000EC004F012003A503B10D8A47EEF09F06B
:1012F80080EF09F025EF0AF0080E036E2F0E046E3A
:10130800800E056EBFEC0EF0780E52648EEF09F079
:1013180090EF09F092EF09F0000E526E5050D8A4E9
:1013280098EF09F09AEF09F0B9EF09F0000E106E86
:10133800000E0F6E0F50C00F0D6E525060EC10F083
:10134800AFEC10F0522A0F4A102A10BEB5EF09F080
:10135800105009E10C0E0F5CD8A0B5EF09F0B7EFFB
:1013680009F09EEF09F0010E506E5050D8B4BFEF4F
:1013780009F0C1EF09F01BEF0AF00C0E48184910EC
:10138800D8A4C9EF09F0CBEF09F0EAEF09F0000E95
:10139800126E000E116E1150C00F0D6E525060EC9F
:1013A80010F0AFEC10F0522A114A122A12BEE6EFE2
:1013B80009F0125009E10C0E115CD8A0E6EF09F013
:1013C800E8EF09F0CFEF09F01BEF0AF00B0E481811
:1013D8004910D8A4F2EF09F0F4EF09F01BEF0AF076
:1013E800180E5264FAEF09F0FCEF09F01BEF0AF04F
:1013F800180E525E000E146E000E136E1350C00FBE
:101408000D6E525060EC10F0AFEC10F0522A134AF7
:10141800142A14BE19EF0AF0145009E10C0E135CDB
:10142800D8A019EF0AF01BEF0AF002EF0AF0020E3B
:10143800036E2F0E046ECC0E056EBFEC0EF02DEF72
:101448000AF0F70E036E2E0E046E810E056EBFECC9
:101458000EF00C0E48184910D8A435EF0AF037EFF3
:101468000AF04BEF0AF0020E5518D8A43EEF0AF026
:1014780040EF0AF04BEF0AF0000E016E010E18EC77
:1014880010F0000E476E020E466E000E556E1200EA
:1014980075EC10F043EC0EF0010E69EC0CF0326EB6
:1014A8003250486E496A46504710D8A45EEF0AF099
:1014B80060EF0AF062EF0AF0AFEC06F0460447105E
:1014C800D8A469EF0AF06BEF0AF06DEF0AF0FBECB5
:1014D80002F0020E46184710D8A475EF0AF077EF0D
:1014E8000AF079EF0AF0B0EC07F0030E461847103F
:1014F800D8A481EF0AF083EF0AF087EF0AF077ECBF
:1015080009F0BFEF0AF0040E46184710D8A48FEF71
:101518000AF091EF0AF095EF0AF03CEC0DF0BFEFFE
:101528000AF0050E46184710D8A49DEF0AF09FEF61
:101538000AF0A3EF0AF087EC0FF0BFEF0AF0060EEF
:1015480046184710D8A4ABEF0AF0ADEF0AF0B1EF98
:101558000AF009EC00F0BFEF0AF0070E4618471032
:10156800D8A4B9EF0AF0BBEF0AF0BFEF0AF013EC0A
:1015780011F0BFEF0AF048044910D8B4C6EF0AF0DA
:10158800C8EF0AF0DCEF0AF0020E48184910D8B488
:10159800D0EF0AF0D2EF0AF0DCEF0AF0030E481899
:1015A8004910D8A4DAEF0AF0DCEF0AF04EEF0AF09F
:1015B800ECEC0BF0000E3B6E000E3A6E4EEF0AF0AC
:1015C80007EF00F0819A818E818C81B2EEEF0AF0EC
:1015D800F0EF0AF0F3EF0AF0010E68EF0BF081B4B8
:1015E800F8EF0AF0FAEF0AF0FDEF0AF0040E68EFE0
:1015F8000BF081B602EF0BF004EF0BF007EF0BF0E6
:10160800070E68EF0BF081B80CEF0BF00EEF0BF044
:1016180011EF0BF00A0E68EF0BF0819C818E818A26
:1016280081B219EF0BF01BEF0BF01EEF0BF0020E5F
:1016380068EF0BF081B423EF0BF025EF0BF028EFE8
:101648000BF0050E68EF0BF081B62DEF0BF02FEFC6
:101658000BF032EF0BF0080E68EF0BF081B837EFA4
:101668000BF039EF0BF03CEF0BF00B0E68EF0BF0C3
:10167800819E818A818C81B244EF0BF046EF0BF09A
:1016880049EF0BF0030E68EF0BF081B44EEF0BF04F
:1016980050EF0BF053EF0BF0060E68EF0BF081B62E
:1016A80058EF0BF05AEF0BF05DEF0BF0090E68EFF7
:1016B8000BF081B862EF0BF064EF0BF067EF0BF003
:1016C8000C0E68EF0BF0FF0E12002A342B34316E2B
:1016D8003150D8A472EF0BF074EF0BF07EEF0BF0E3
:1016E800000E286E000E296E000E2A6E000E2B6E5C
:1016F800EBEF0BF028C02CF029C02DF02AC02EF0FB
:101708002BC02FF0200E8EEF0BF0D8902F322E32F8
:101718002D322C32E82E89EF0BF02C50306E2A8EA9
:10172800FF0E2816FF0E2916FF0E2A16000E2B167E
:10173800960E315E31BEA5EF0BF0A3EF0BF0BBEFB9
:101748000BF03150800A970FD8B0ADEF0BF0AFEF28
:101758000BF0B1EF0BF074EF0BF0D8902B322A326C
:1017680029322832313EB1EF0BF0D3EF0BF01F0EC8
:101778003164C1EF0BF0C3EF0BF0CBEF0BF074EF5C
:101788000BF0D890283629362A362B3631063150B8
:10179800D8A4D1EF0BF0D3EF0BF0C5EF0BF030501E
:1017A800D8B4D9EF0BF0DBEF0BF0E3EF0BF02B1E07
:1017B8002A1E291E286C000E29222A222B2228C024
:1017C80028F029C029F02AC02AF02BC02BF01200DB
:1017D800780E5164F2EF0BF0F4EF0BF0F6EF0BF02C
:1017E800000E516E000E146E000E136E860E13243A
:1017F800D96E000E1420DA6EDF500D6E5150F8ECE1
:101808000FF0512A134A142A14BE14EF0CF0145086
:1018180009E1080E135CD8A014EF0CF016EF0CF0D9
:10182800FAEF0BF0D8904434D96E4534DA6E8F0E47
:10183800D926000EDA22DECFF6FFDDCFF7FF08004B
:10184800F5CF0DF05150F8EC0FF0512AD8904434F0
:10185800D96E4534DA6E8F0ED926000EDA22DECF25
:1018680011F0DDCF12F0010E1126000E122211C068
:10187800F6FF12C0F7FF0800F5CF0DF05150F8EC55
:101888000FF0512A3EC001F03FC002F0000E046E76
:101898000A0E036E85EC0EF00150300F0D6E51509C
:1018A800F8EC0FF0512A3EC008F03FC009F0000ED6
:1018B8000B6E0A0E0A6E28EC0FF00850300F0D6EF2
:1018C8005150F8EC0FF0512A1200036E0304D8A40B
:1018D80070EF0CF072EF0CF0D8EF0CF0E6EC0AF0B9
:1018E8004A6E4A28D8B47BEF0CF07DEF0CF0ACEFD1
:1018F8000CF0020E4B18D8B484EF0CF086EF0CF005
:10190800ACEF0CF0010E4B6E3850016E3950026E80
:10191800384A392A02BE9AEF0CF0F50E015C010E26
:101928000258D8A09AEF0CF09CEF0CF0A7EF0CF03F
:10193800000E396E000E386E020E556E020E4B6E9A
:101948004A50D9EF0CF04AC05CF05D6AD8EF0CF051
:101958004A28D8A4B2EF0CF0B4EF0CF0C5EF0CF0A5
:101968004B04D8A4BAEF0CF0BCEF0CF0C5EF0CF0A8
:10197800000E4B6E000E396E000E386E5C50D9EFBB
:101988000CF04A28D8A4CBEF0CF0CDEF0CF0D8EF30
:101998000CF0000E396E000E386E000E5D6E5C683D
:1019A800000E4B6ED8EF0CF0FF0E1200000E066E04
:1019B80004BEE3EF0CF0E1EF0CF0E9EF0CF0036C80
:1019C800041ED8B0042A010E066E02BEF0EF0CF019
:1019D800EEEF0CF0F6EF0CF0016C021ED8B0022A04
:1019E800010E061A000E086E000E076E0350041052
:1019F800D8B401EF0DF003EF0DF02BEF0DF0010E51
:101A0800056E0BEF0DF0D89003360436052A04AEA8
:101A180010EF0DF012EF0DF007EF0DF0D89007362C
:101A280008360350015C04500258D8A01EEF0DF090
:101A380020EF0DF025EF0DF00350015E0450025A1F
:101A48000780D89004320332052E12EF0DF00650AD
:101A5800D8B431EF0DF033EF0DF037EF0DF0076C20
:101A6800081ED8B0082A07C001F008C002F012000A
:101A78003A503B10D8A443EF0DF045EF0DF070EF4E
:101A88000DF00A0E4F604BEF0DF04DEF0DF078EFB3
:101A98000DF0000E076E000E066E4E5060EC10F052
:101AA800C6EC10F04E2A064A072A07BE65EF0DF06D
:101AB800075009E10C0E065CD8A065EF0DF067EF42
:101AC8000DF051EF0DF00A0EC6EC10F00D0EC6EC3D
:101AD80010F04F2A78EF0DF0F70E036E2E0E046EFD
:101AE800810E056EBFEC0EF00C0E48184910D8A4F4
:101AF80080EF0DF082EF0DF096EF0DF0020E551805
:101B0800D8A489EF0DF08BEF0DF096EF0DF0000ED5
:101B1800016E010E18EC10F0000E476E020E466EB4
:101B2800000E556E1200000E066E02BEA0EF0DF0FC
:101B38009EEF0DF0A6EF0DF0016C021ED8B0022A40
:101B4800010E066E04BEADEF0DF0ABEF0DF0B1EF78
:101B58000DF0036C041ED8B0042A03500410D8B446
:101B6800B8EF0DF0BAEF0DF0DEEF0DF0010E056ED7
:101B7800C2EF0DF0D89003360436052A04AEC7EF3D
:101B88000DF0C9EF0DF0BEEF0DF00350015C0450ED
:101B98000258D8A0D2EF0DF0D4EF0DF0D8EF0DF029
:101BA8000350015E0450025AD89004320332052EC5
:101BB800C9EF0DF00650D8B4E4EF0DF0E6EF0DF0E4
:101BC800EAEF0DF0016C021ED8B0022A01C001F044
:101BD80002C002F01200000E956E9450F80B946E3D
:101BE8008290C30E036ECD0EE82EFED7032EFCD7CF
:101BF80000F0000E016E330E18EC10F01B0E036E91
:101C08009E0EE82EFED7032EFCD700D0000E016EE4
:101C1800330E18EC10F0A60EE82EFED700D0000EFA
:101C2800016E330E18EC10F000D000D000F0000E5A
:101C3800016E020E18EC10F0A60EE82EFED700D0AA
:101C4800000E016E380E18EC10F0A60EE82EFED726
:101C580000D0000E016E010E18EC10F0040E036E99
:101C68003E0EE82EFED7032EFCD7000E016E0C0E9A
:101C780018EC10F0A60EE82EFED700D01200020EC7
:101C88004BEC10F0336E010E4BEC10F0346E000E7E
:101C98004BEC10F0356E33AC54EF0EF056EF0EF0FF
:101CA80062EF0EF033380F0B010B300F0001866F17
:101CB80033500F0B300F876F6CEF0EF033380F0B6C
:101CC800030B300F0001866F33500F0B300F876FF7
:101CD8003A0E886F34380F0B0F0B300F896F345062
:101CE8000F0B300F8A6F3A0E8B6F35380F0B0F0BB7
:101CF800300F8C6F35500F0B300F8D6F000E8E6FBD
:101D08001200000E066E000E056E03500410D8B4C3
:101D180090EF0EF092EF0EF0BAEF0EF0010E076E94
:101D28009AEF0EF0D89003360436072A04AE9FEFD8
:101D38000EF0A1EF0EF096EF0EF0D89005360636AD
:101D48000350015C04500258D8A0ADEF0EF0AFEF7D
:101D58000EF0B4EF0EF00350015E0450025A0580F5
:101D6800D89004320332072EA1EF0EF005C001F01F
:101D780006C002F01200000E016E055018EC10F0BB
:101D8800DCEF0EF0010E016E03C0F6FF04C0F7FF92
:101D9800F86A050EF76403D00800F55005D0F6CFB1
:101DA800E9FFF7CFEAFFEF5018EC10F0034A042AD6
:101DB80003C0F6FF04C0F7FFF86A050EF76403D006
:101DC8000800F55005D0F6CFE9FFF7CFEAFFEF504E
:101DD8000009D8A4F2EF0EF0F4EF0EF0C6EF0EF003
:101DE80012006A0EF66E200EF76E000EF86E00EE08
:101DF8008FF010EE2CF00900F5CFEEFFE550E15022
:101E0800FAE1F00EF66E210EF76E000EF86E00EE97
:101E180056F010EE08F00900F5CFEEFFE550E1505E
:101E2800FAE100EE60F02F0EEE6AE806FDE100EE42
:101E380033F0230EEE6AE806FDE15E905E92000E36
:101E4800F86E00014CEF0AF00A500B10D8B42FEFCF
:101E58000FF031EF0FF055EF0FF0010E0C6E39EF68
:101E68000FF0D8900A360B360C2A0BAE3EEF0FF067
:101E780040EF0FF035EF0FF00A50085C0B5009588F
:101E8800D8A049EF0FF04BEF0FF04FEF0FF00A50CB
:101E9800085E0B50095AD8900B320A320C2E40EFCC
:101EA8000FF008C008F009C009F012000600080E7B
:101EB800D624D66E000ED720D76EF2A466EF0FF0A8
:101EC80068EF0FF085EF0FF0364A372A210E3618E3
:101ED80007E14E0E3718D8A474EF0FF076EF0FF025
:101EE80084EF0FF0010E00016C27000E6D236E23A6
:101EF8006F235A06D8A05B06000E376E000E366EAA
:101F0800F2945E921100000E3B6E010E3A6E5C0E6A
:101F1800036E2F0E046E810E056EBFEC0EF00C0ED4
:101F280048184910D8A49BEF0FF09DEF0FF0B1EFC0
:101F38000FF0020E5518D8A4A4EF0FF0A6EF0FF07B
:101F4800B1EF0FF0000E016E010E18EC10F0000E4C
:101F5800476E020E466E000E556E1200086E08C0DF
:101F680003F0D8900336D8900336C250C30B031041
:101F7800C26EC282C2B2C3EF0FF0C5EF0FF0BEEF60
:101F88000FF0C4CF03F0030E03160350056E046A66
:101F9800C350066E076A04500610016E05500710FC
:101FA800026E1200000E4BEC10F00B6E0B50800905
:101FB800096E000E93EC10F0020E4BEC10F0000EC0
:101FC800096E020E93EC10F0930E096E070E93EC57
:101FD80010F0000E4BEC10F00B6E0B507F0B096EDF
:101FE800000E93EC10F01200106E04EC11F0A00E2D
:101FF800ECEC10F01050ECEC10F00D50ECEC10F094
:1020080000EC11F00B0E0F6EB80E0E6E0E06D8A077
:102018000F060E2806E10F28D8A415EF10F017EFC9
:1020280010F00AEF10F01200026E01B01EEF10F06F
:1020380021EF10F0828222EF10F0829202C083FF1B
:1020480082848294958E828082928284829483BED6
:1020580030EF10F032EF10F029EF10F08290959EDB
:102068001200F62FF32FF92FE42FE72FEA2FED2F89
:10207800F02FE12F862FAD2F932F792FA02F3030FF
:102088003131303031310100000030303131026EF1
:1020980004EC11F0D00EECEC10F00250ECEC10F067
:1020A80008EC11F0D10EECEC10F0F2EC10F0036E2D
:1020B80000EC11F003501200026E04EC11F0A00EB7
:1020C800ECEC10F00250ECEC10F008EC11F0A10E62
:1020D800ECEC10F0F2EC10F0036E00EC11F0035091
:1020E8001200EFEC0DF0FCEC10F084EC10F0A2EC18
:1020F80010F0BBEC10F0D6EC0FF0D1EC10F01200A1
:10210800C280C19AC198C186C194C182C190C08E53
:10211800C094C082C090C08AC098C09612000A6E4F
:1021280004EC11F0D00EECEC10F00A50ECEC10F0CE
:102138000950ECEC10F000EC11F01200F28EF28C69
:10214800F28AF294000ED76E060ED66ED58ED58C16
:10215800D59AD58612000E6E000E016E0D5018EC41
:1021680010F0010E016E0E5018EC10F0120094865B
:102178009488280EC66E310EC86EC79CC78E9E9670
:10218800A1961200016E9EA8CCEF10F0CEEF10F0D1
:10219800C7EF10F001C0ADFF1200948E949CAC8480
:1021A800AB8EAB88810EAF6E9D8A12009EA6DFEFC4
:1021B80010F0E1EF10F0DAEF10F09E961200860EA4
:1021C800036E000E046EC20E056EBFEC0EF0120018
:1021D800016E01C0C9FFDAEC10F012000CEC11F02E
:1021E80010EC11F0C9501200030000007800FF0045
:1021F8001E0E936EF19E1200C584DAEC10F01200E8
:10220800C580DAEC10F01200C582DAEC10F012008A
:10221800C586DAEC10F01200C58AC58812001200D3
:102EF60000204E4F204C4F475320202020202020DA
:102F0600200056696577206C6F6767202020202097
:102F1600202000415454454D5054204C45465420E1
:102F26002D202000594F552041524520424C4F43F9
:102F36004B4544200020454E5445522050415353A2
:102F4600574F52442000415454454D505420464159
:102F5600494C55524500434C4541524544204C4F3F
:102F6600472020200054494D4520534554205355B1
:102F76004343005345542054494D4520202020000A
:102F8600564945575F4C4F472020202000434C456B
:102F960041525F4C4F47202020004348414E474551
:102FA6005F505357442000444F574E4C4F41445FA7
:102FB6004C4F470020205355434345535320200090
:102FC6005741495420464F52200048483A4D4D3A01
:102FD60053530054494D4500535000432000473198
:102FE60000473200473300473400473500474E005C
:092FF6004F4E004752002A000072
:020000040020DA
:08000000FFFFFFFFFFFFFFFF00
:020000040030CA
:0E000000FF071F1FFF8285FF0FC00FE00F409C
:00000001FF
